:100000000C942A000C9447000C9447000C94470071
:100010000C9447000C9447000C9447000C94470044
:100020000C9447000C9447000C9447000C94470034
:100030000C9447000C9447000C9447000C94470024
:100040000C9447000C9447000C9447000C94470014
:100050000C94470011241FBECFE5D4E0DEBFCDBF16
:1000600012E0A0E6B0E0EEE5F0E102C005900D92EE
:10007000A630B107D9F712E0A6E0B2E001C01D92A8
:10008000A635B107E1F70E94A1020C942D080C944B
:1000900000001BBA1ABA18BA8FE087BB15BA14BA97
:1000A00012BA82E881BB08959B01AC0184E0220F63
:1000B000331F441F551F8A95D1F760E074E284EF27
:1000C00090E00E9451072150304010BC29B98AB1FC
:1000D00088618AB980B5866880BD08955F9B02C03B
:1000E0008CB1089580E008955D9BFECF8CB9089592
:1000F0009C0180E001C08F5FF901E80FF11D908144
:100100009923C9F70895CF92DF92FF920F931F931F
:10011000CF93DF93182F092F0E947800F82EC80183
:10012000C92EE6016E01D82EE60103C089910E9416
:1001300074006E01C11ACF14C8F3812F902F60E6AE
:1001400070E00E94AA07DF91CF911F910F91FF905D
:10015000DF90CF900895CF92DF92FF920F931F937D
:10016000CF93DF93182F092F0E947800F82EC80133
:10017000C92EE6016E01D82EE60103C089910E94C6
:1001800074006E01C11ACF14C8F3812F902F60E65E
:1001900070E00E94AA078DE00E9474008AE00E942D
:1001A0007400DF91CF911F910F91FF90DF90CF905E
:1001B00008958DE00E9474008AE00E947400089502
:1001C0000F931F93CF93DF930E94D900C6E0D2E034
:1001D00001E610E0CE01B8010E94AA07CE010E94FC
:1001E000AB00CE016BE770E00E94AA07CE010E942F
:1001F000AB00CE0165E970E00E94AA07CE010E9423
:10020000AB00CE016FEA70E00E94AA07CE010E9407
:10021000AB00CE01B8010E94AA07CE010E94AB003C
:10022000CE0169EC70E00E94AA07CE010E94AB00EB
:10023000CE01B8010E94AA07CE010E94AB00DF9157
:10024000CF911F910F910895CF93DF930E94D90012
:10025000C6E0D2E0CE0163EE70E00E94AA07CE01B4
:100260000E94AB000E94D900DF91CF910895EF92D8
:10027000FF920F931F93DF93CF93CDB7DEB76297B3
:100280000FB6F894DEBF0FBECDBF682F80E3898321
:100290008A83DE011396EDEEF0E080E101900D928D
:1002A0008150E1F78E010D5F1F4F780116C0862F38
:1002B0008F70F701E80FF11D8081F80182938F01A3
:1002C00062956F7070E0882777FD8095982F0E9467
:1002D000B5040E94B1070E94B102662341F784E28F
:1002E0000E94740089810E9474008A810E947400B7
:1002F0000E94D90062960FB6F894DEBF0FBECDBF44
:10030000CF91DF911F910F91FF90EF9008951F9370
:10031000CA9B02C010E001C010E8C99B105CC89BDA
:10032000105E829B105FB099185FB1991C5FB29903
:100330001E5FB3991F5F882321F48091EC00811721
:1003400029F01093EC00812F0E9437011093EC00EC
:100350001F9108950E946E008823E1F3843311F405
:10036000C0980BC0833311F4C19807C0823311F4D5
:10037000C29803C0813309F4C39881E00E948701C9
:1003800008950E946E008823E1F3843311F4C09A2B
:100390000BC0833311F4C19A07C0823311F4C29A9F
:1003A00003C0813309F4C39A81E00E948701089554
:1003B0001F93DF93CF9300D000D00F92CDB7DEB75D
:1003C00080E389838A838B838C8361E090E080E083
:1003D0003AC00E946E0021E030E08D3011F420E040
:1003E00030E0A9014170507021E08A3009F420E02A
:1003F00091E0882309F490E0292330E02423352379
:1004000021153105D1F0982F9A5341E0973008F02B
:1004100040E091E0803308F090E0492B50E021E08B
:1004200030E0873410F420E030E0242B352B211508
:10043000310531F4182F61E005C061E090E003C0A0
:10044000182F60E091E0462F50E021E030E0992342
:1004500011F020E030E02423352341E08D3009F411
:1004600040E091E08A3009F490E09423892F90E0F5
:1004700082239323009709F0ACCF662319F40E94DE
:1004800024012FC01A3310F4105301C0175320E079
:10049000CE01019609C0FC01E20FF11D312F317030
:1004A000305D30832F5F16951123A9F78C8181333E
:1004B00011F4C09A01C0C0988B81813311F4C19AA4
:1004C00001C0C1988A81813311F4C29A01C0C298D7
:1004D0008981813311F4C39A01C0C39881E00E94DD
:1004E00087010F900F900F900F900F90CF91DF9199
:1004F0001F9108951F930E946E00182F80E00E94A4
:1005000087011123C1F31F3321F481E00E94870189
:1005100016C01D3319F40E94D80111C01B3219F402
:100520000E94C1010CC01D3219F40E94AA0107C02B
:10053000163719F40E94E00002C00E9424011F91A6
:1005400008950E94490060E07BE480E090E00E9412
:1005500054000E94E0000E947A0280E00E9487011D
:10056000FACFEF92FF920F931F937B018C0120E053
:1005700030E040E05FE40E94850487FD11C0C801BF
:10058000B70120E030E040E05FE40E9454040E94A4
:1005900015059B01AC01205030404040504806C03A
:1005A000C801B7010E9415059B01AC01B901CA0140
:1005B0001F910F91FF90EF900895A0E0B0E0E3EE5F
:1005C000F2E00C947707FC01EA018081823008F4A4
:1005D00038C1DB019C91923008F430C1843059F469
:1005E000943009F02EC1918111968C911197981732
:1005F00009F021C126C1943009F420C19230B1F430
:10060000823009F01EC1CA01AF0128E0DA010D9065
:10061000AD01DC010D92CD012150C1F7DB01119636
:100620008C9111979181892389830AC1823009F4C1
:1006300005C1C280D380DB0112966D907C90139728
:1006400024813581468157811496ED90FD900D915E
:100650001C911797C601861997095C0197FF04C082
:10066000AA24BB24A81AB90AB0E2AB16B1040CF054
:1006700061C0181619066CF5370148010A2C04C030
:1006800096948794779467940A94D2F781E090E0E7
:10069000A0E0B0E00A2C04C0880F991FAA1FBB1F5E
:1006A0000A94D2F70197A109B1098E219F21A023B5
:1006B000B123EE24FF248701E3940097A105B1053F
:1006C00019F4EE24FF248701E628F72808291929C0
:1006D0003CC00097D1F1CA0CDB1C39014A010A2C3D
:1006E00004C096948794779467940A94D2F781E033
:1006F00090E0A0E0B0E00A2C04C0880F991FAA1F68
:10070000BB1F0A94D2F70197A109B1098223932351
:10071000A423B52321E030E040E050E00097A1059C
:10072000B10519F420E030E0A9012629372948292C
:1007300059290BC06C147D0424F4EE24FF24870196
:1007400004C0630120E030E0A9018181FB019181B7
:10075000891709F445C0882349F0D801C701821BD5
:10076000930BA40BB50B9C01AD0104C02E193F09DE
:10077000400B510B57FD04C01982DB82CA820BC0AB
:1007800081E08983DB82CA8250954095309521951E
:100790003F4F4F4F5F4F2C833D834E835F830DC090
:1007A000880F991FAA1FBB1F8C839D83AE83BF83B5
:1007B0008A819B8101979B838A838C819D81AE81F5
:1007C000BF819C01AD0121503040404050402F3F3F
:1007D000EFEF3E07EFEF4E07EFE35E0708F30BC0C6
:1007E0008983DB82CA822E0D3F1D401F511F2C833F
:1007F0003D834E835F8383E088832C813D814E81DE
:100800005F8157FF1DC0DA01C90181709070A0702F
:10081000B0705695479537952795822B932BA42B2F
:10082000B52B8C839D83AE83BF838A819B81019688
:100830009B838A8305C0EDEFF0E003C0FB0101C09C
:10084000FE01CF01CDB7DEB7EEE00C949307A0E236
:10085000B0E0EDE2F4E00C947F0769837A838B8348
:100860009C832D833E834F83588789E0E82EF12CAB
:10087000EC0EFD1ECE010196B7010E948F068E017F
:100880000F5E1F4FCE010596B8010E948F06C7016B
:10089000B801AE01475E5F4F0E94DD020E94C105B4
:1008A000A096E6E00C949B07A0E2B0E0EAE5F4E055
:1008B0000C947F0769837A838B839C832D833E838B
:1008C0004F8358878E01075F1F4FCE010196B801F5
:1008D0000E948F0691E1E92EF12CEC0EFD1ECE0157
:1008E0000596B7010E948F068A8991E089278A8B35
:1008F000C801B701AE01475E5F4F0E94DD020E9452
:10090000C105A096E6E00C949B07A8E1B0E0EBE8F7
:10091000F4E00C947F0769837A838B839C832D8317
:100920003E834F8358878E01075F1F4FCE0101968C
:10093000B8010E948F0681E1E82EF12CEC0EFD1E1D
:10094000CE010596B7010E948F068985823040F05E
:100950008989823028F0C801B7010E94F80601C0D9
:100960008FEF6896E6E00C949B07A8E0B0E0EBEB15
:10097000F4E00C947F077B018C0183E08983D8012C
:10098000C7018827B7FD83959927AA27BB27282F5A
:100990008A83E114F1040105110519F482E08983C9
:1009A00037C08EE190E09C838B83222389F080E026
:1009B000E81680E0F80680E0080780E8180769F18B
:1009C00010950095F094E094E11CF11C011D111D9F
:1009D000ED82FE820F831887C801B7010E94670568
:1009E0009C01215030401216130694F4022E04C0CC
:1009F000EE0CFF1C001F111F0A94D2F7ED82FE823D
:100A00000F8318878EE190E0821B930B9C838B836E
:100A1000CE0101960E94C10504C060E070E080E054
:100A20009FEC2896E6E00C949B07ACE0B0E0EBE18D
:100A3000F5E00C94830769837A838B839C83CE01D2
:100A40000196BE016B5F7F4F0E948F068D818230C1
:100A500081F1823070F1843021F48E81882369F134
:100A60000AC02F81388537FD24C06E812F313105B2
:100A70003CF0662311F120E030E040E050E821C076
:100A80008EE190E0821B930B29853A854B855C852E
:100A900004C056954795379527958A95D2F76623D2
:100AA00081F050954095309521953F4F4F4F5F4FC6
:100AB00008C020E030E0A90104C02FEF3FEF4FEF66
:100AC0005FE7B901CA012C96E2E00C949F07AF9250
:100AD000BF92CF92DF92EF92FF920F931F937B0111
:100AE0008C0180E0E81680E0F80681E0080780E0ED
:100AF000180758F4EFEFEE16F1040105110509F09F
:100B000090F480E090E0DC0117C0F0E0EF16F0E038
:100B1000FF06F0E00F07F1E01F0750F480E190E0DE
:100B2000A0E0B0E009C088E090E0A0E0B0E004C040
:100B300088E190E0A0E0B0E020E230E040E050E06A
:100B4000281B390B4A0B5B0B5701680104C0D69474
:100B5000C794B794A7948A95D2F7D601C5018B5F45
:100B60009E4FFC018081281B310941095109C901AF
:100B70001F910F91FF90EF90DF90CF90BF90AF90BB
:100B80000895EF92FF920F931F93CF93DF93FC0191
:100B9000248135814681578161818081823020F4B2
:100BA0004061EFEFF0E0A3C0843009F49BC08230D5
:100BB00009F492C0211531054105510509F48FC092
:100BC0000280F381E02D8FEFE238F8070CF05AC075
:100BD000C2E8DFEFCE1BDF0BCA31D1056CF579011E
:100BE0008A010C2E04C016950795F794E7940A9491
:100BF000D2F781E090E0A0E0B0E00C2E04C0880FB6
:100C0000991FAA1FBB1F0A94D2F70197A109B10926
:100C100082239323A423B52321E030E040E050E079
:100C20000097A105B10519F420E030E0A9012E29B3
:100C30003F29402B512B03C020E030E0A901DA010D
:100C4000C9018F779070A070B07080349105A105B4
:100C5000B10539F427FF09C0205C3F4F4F4F5F4F6C
:100C600004C0215C3F4F4F4F5F4FE1E0F0E0203088
:100C700080E0380780E0480780E4580728F5E0E086
:100C8000F0E022C0E038F1056CF5E158FF4FDA01E1
:100C9000C9018F779070A070B07080349105A10564
:100CA000B10539F427FF09C0205C3F4F4F4F5F4F1C
:100CB00004C0215C3F4F4F4F5F4F57FF05C0569513
:100CC000479537952795319687E0569547953795FF
:100CD00027958A95D1F70BC0E0E0F0E005C0E0E091
:100CE000F0E005C0EFEFF0E020E030E0A9018E2F4A
:100CF000879588278795942F9F77679566276795AF
:100D0000E695E22EA92FA82BFE2FF62B622F732F2C
:100D10008A2F9F2FCDB7DEB7E6E00C949B07DC014E
:100D2000FB012C9111963C91119712968C91129780
:100D3000482F4F7750E0982F991F9927991F1396A6
:100D40006C911397862F880F892B90E0661F66277A
:100D5000661F6183009739F521153105410551055D
:100D600011F482E029C082E89FEF9383828367E0D9
:100D7000220F331F441F551F6A95D1F783E08083EC
:100D800009C0220F331F441F551F82819381019791
:100D900093838283203080E0380780E0480780E436
:100DA000580778F320C08F3F910579F4211531055C
:100DB0004105510519F484E08083089544FF03C080
:100DC00081E0808310C010820EC08F5790409383C3
:100DD000828383E0808387E0220F331F441F551FE7
:100DE0008A95D1F7506424833583468357830895C9
:100DF000FC01DB019081923008F449C08C91823073
:100E000008F445C0943051F461818430B1F51196F5
:100E10002C91119730E0261B310941C0843021F01C
:100E2000923041F48230B1F111968C911197882360
:100E3000A1F12DC06181823001F111968C91119741
:100E40006817D9F42281338112968D919C91139762
:100E50008217930794F028173907BCF02481358155
:100E60004681578114968D919D910D90BC91A02D36
:100E700082179307A407B50718F4662341F00DC045
:100E8000281739074A075B0728F4662331F021E069
:100E900030E005C020E030E002C02FEF3FEFC90195
:100EA0000895A1E21A2EAA1BBB1BFD010DC0AA1FAB
:100EB000BB1FEE1FFF1FA217B307E407F50720F0C3
:100EC000A21BB30BE40BF50B661F771F881F991F3E
:100ED0001A9469F760957095809590959B01AC0187
:100EE000BD01CF0108952F923F924F925F926F9272
:100EF0007F928F929F92AF92BF92CF92DF92EF92AA
:100F0000FF920F931F93CF93DF93CDB7DEB7CA1B2A
:100F1000DB0B0FB6F894DEBF0FBECDBF09942A8855
:100F2000398848885F846E847D848C849B84AA84FD
:100F3000B984C884DF80EE80FD800C811B81AA818A
:100F4000B981CE0FD11D0FB6F894DEBF0FBECDBF55
:100F5000ED010895FB01DC0101900D920020E1F705
:100F600008953BD080F09F3740F491110EF04DC0B2
:100F700060E070E080E89FEB089526F41B16611D89
:100F8000711D811D01C01BC0882371F4772321F0DE
:100F90009850872B762F07C0662311F499270DC030
:100FA0009051862B70E060E02AF09A95660F771FCB
:100FB000881FDAF7880F9695879597F908959F3FD0
:100FC00031F0915020F4879577956795B795880F04
:100FD000911D9695879597F9089525D0A0F0BEE7C5
:100FE000B91788F4BB279F3860F41616B11D672F18
:100FF000782F8827985FF7CF869577956795B11DED
:1010000093959639C8F30895E894BB276627772708
:10101000CB0197F9089557FD9058440F551F59F08B
:101020005F3F71F04795880F97FB991F61F09F3FD5
:1010300079F087950895121613061406551FF2CFFE
:101040004695F1DF08C0161617061806991FF1CF4E
:0E10500086957105610508940895F894FFCF08
:10105E00002A2A2A2A2A2A2A2A2A2A2A2A2A2A2A0C
:10106E002A2A2A2A2A2A2A2A2A2A002A20205069AB
:10107E00344A204750494F20457874656E73696F26
:10108E006E20202A002A20202D4F4C494D455820F5
:10109E0041565220494F204D31362D20202A002A0C
:1010AE00202020202056455253494F4E20312E30BD
:1010BE002E3020202020202A002A202028432920DC
:1010CE00323031322C20205069344A2E434F4D207D
:1010DE00202A004552524F5221000100FF3031327A
:1010EE0033343536373839414243444546000000E3
:1010FE0000000000000001020203030303040404C5
:10110E000404040404050505050505050505050586
:10111E000505050505060606060606060606060666
:10112E000606060606060606060606060606060651
:10113E000606060606070707070707070707070736
:10114E000707070707070707070707070707070721
:10115E000707070707070707070707070707070711
:10116E000707070707070707070707070707070701
:10117E0007070707070808080808080808080808E6
:10118E0008080808080808080808080808080808D1
:10119E0008080808080808080808080808080808C1
:1011AE0008080808080808080808080808080808B1
:1011BE0008080808080808080808080808080808A1
:1011CE000808080808080808080808080808080891
:1011DE000808080808080808080808080808080881
:1011EE000808080808080808080808080808080871
:0611FE00080808080800C3
:00000001FF
